:100000000C9462000C948A000C948A000C948A0070
:100010000C948A000C948A000C948A000C948A0038
:100020000C948A000C948A000C948A000C948A0028
:100030000C948A000C948A000C948A000C948A0018
:100040000C948D070C948A000C945B070C94350774
:100050000C948A000C948A000C948A000C948A00F8
:100060000C948A000C948A000000000023002600F3
:10007000290000000000240027002A0000000000E2
:10008000250028002B0004040404040404040202D4
:100090000202020203030303030301020408102007
:1000A0004080010204081020010204081020000012
:1000B0000008000201000003040700000000000027
:1000C0000000D70711241FBECFEFD8E0DEBFCDBFA1
:1000D00011E0A0E0B1E0ECE6F4E102C005900D9281
:1000E000A03BB107D9F722E0A0EBB1E001C01D921F
:1000F000AA37B207E1F710E0C2E6D0E004C02197CA
:10010000FE010E94290AC136D107C9F70E943808AA
:100110000C94340A0C940000AF92BF92CF92DF92FD
:10012000EF92FF920F931F93CF93DF936C017B01AC
:100130008B01040F151FEB015E01AE18BF08C0173D
:10014000D10759F06991D601ED91FC910190F081B0
:10015000E02DC6010995892B79F7C501DF91CF9173
:100160001F910F91FF90EF90DF90CF90BF90AF90D5
:100170000895FC01538D448D252F30E0842F90E0AD
:10018000821B930B541710F0CF9608950197089592
:10019000FC01918D828D981761F0A28DAE0FBF2F5B
:1001A000B11D5D968C91928D9F5F9F73928F90E0B1
:1001B00008958FEF9FEF0895FC01918D828D981720
:1001C00031F0828DE80FF11D858D90E008958FEF5D
:1001D0009FEF0895FC01918D228D892F90E0805C26
:1001E0009F4F821B91098F73992708958BEB91E0A4
:1001F0000E94EA0021E0892B09F420E0822F089573
:1002000080E090E0892B29F00E94F60081110C9487
:1002100000000895FC01A48DA80FB92FB11DA35AA9
:10022000BF4F2C91848D90E001968F739927848F16
:10023000A689B7892C93A089B1898C918370806439
:100240008C93938D848D981306C00288F389E02DDA
:1002500080818F7D80830895EF92FF920F931F938B
:10026000CF93DF93EC0181E0888F9B8D8C8D981369
:100270001AC0E889F989808185FF15C09FB7F89475
:10028000EE89FF896083E889F989808183708064C1
:1002900080839FBF81E090E0DF91CF911F910F910C
:1002A000FF90EF900895F62E0B8D10E00F5F1F4F1B
:1002B0000F731127E02E8C8D8E110CC00FB607FC2A
:1002C000FACFE889F989808185FFF5CFCE010E94B8
:1002D0000A01F1CFEB8DEC0FFD2FF11DE35AFF4F1B
:1002E000F0829FB7F8940B8FEA89FB898081806246
:1002F000CFCFCF93DF93EC01888D8823B9F0AA8903
:10030000BB89E889F9898C9185FD03C0808186FDD0
:100310000DC00FB607FCF7CF8C9185FFF2CF80811F
:1003200085FFEDCFCE010E940A01E9CFDF91CF9189
:10033000089590E0FC01E255FF4F2491FC01E65640
:10034000FF4F3491FC01EA57FF4FE491EE23C9F0CF
:10035000222339F0233001F1A8F4213019F12230A1
:1003600029F1F0E0EE0FFF1FE458FF4FA591B49183
:100370008FB7F894EC91611126C030953E233C93E1
:100380008FBF08952730A9F02830C9F0243049F7ED
:10039000809180008F7D03C0809180008F77809353
:1003A0008000DFCF84B58F7784BDDBCF84B58F7DB0
:1003B000FBCF8091B0008F778093B000D2CF809137
:1003C000B0008F7DF9CF3E2BDACFCF93DF9390E053
:1003D000FC01E656FF4F24918A579F4FFC01849100
:1003E0008823D1F090E0880F991FFC01EE58FF4F51
:1003F000A591B491FC01E458FF4FC591D4916111CE
:100400000EC09FB7F8948C91E22FE0958E238C93C9
:100410002881E223E8839FBFDF91CF9108958FB7B2
:10042000F894EC91E22BEC938FBFF6CF3FB7F894A2
:100430008091B5019091B601A091B701B091B8013A
:1004400026B5A89B05C02F3F19F00196A11DB11D2F
:100450003FBFBA2FA92F982F8827BC01CD01620F6B
:10046000711D811D911D42E0660F771F881F991F26
:100470004A95D1F708958F929F92AF92BF92CF92F3
:10048000DF92EF92FF924B015C010E9416026B011A
:100490007C010E9416026C197D098E099F09683E35
:1004A000734081059105A8F321E0821A9108A10803
:1004B000B10888EEC80E83E0D81EE11CF11C81143F
:1004C0009104A104B10429F7FF90EF90DF90CF9041
:1004D000BF90AF909F908F9008950F931F93CF93ED
:1004E000DF93DA01A9019801EC017F836E83FB01A0
:1004F000E656FF4FE491E887FB01EA57FF4FE4918E
:10050000E987E881F9810480F581E02DBD01DF9163
:10051000CF911F910F9109946F927F928F929F922A
:10052000AF92BF92CF92DF92EF92FF920F931F9301
:10053000CF93DF93CDB7DEB7AC970FB6F894DEBF9D
:100540000FBECDBFDC011696ED91FC91319609F4FA
:1005500080C059013A016B018C01FE0131964F01B7
:1005600088E2DF011D928A95E9F7D801ED91FC91AF
:100570000484F585E02DB401C80109957C01892B1F
:1005800009F051C01AA619A61CA61BA6D801ED9108
:10059000FC910684F785E02D9E01255D3F4FAE015D
:1005A000475D5F4FB401C80109957C01892BD9F5DE
:1005B000A114B10439F088E2F401D50101900D9243
:1005C0008A95E1F709A51AA5C114D10479F0612F24
:1005D000772767FD7A95072E000C880B990B0E94F0
:1005E000A309F6016083718382839383611471048C
:1005F00089F08CA5682F782F770F770B072E000CCA
:10060000880B990B0E94A309D3016D937D938D9361
:100610009C931397012B39F48BA59CA5892B19F476
:1006200096E1E92EF12CC701AC960FB6F894DEBF27
:100630000FBECDBFDF91CF911F910F91FF90EF9033
:10064000DF90CF90BF90AF909F908F907F906F90F2
:10065000089587E1E82EF12CE6CF8F929F92AF921A
:10066000BF92CF92DF92EF92FF920F931F93CF939F
:10067000DF93EC018B016A017901E881F981028441
:10068000F385E02D0995B82EB801685F7F4FE881AA
:10069000F9810284F385E02DCE010995982EB801E9
:1006A000605F7F4FE881F9810284F385E02DCE0100
:1006B0000995A82EB801685E7F4FE881F981028410
:1006C000F385E02DCE010995882EB801605E7F4F3D
:1006D000E881F9810284F385E02DCE0109959B2DF7
:1006E000990D9A0D980D891319C09A2D882DF60130
:1006F000918380839B2D892DF7019183808390E0E6
:1007000080E0DF91CF911F910F91FF90EF90DF90EC
:10071000CF90BF90AF909F908F90089585E190E02B
:10072000F0CF47E050E080E0FB012191BF01042EB3
:1007300001C0220F0A94EAF7820F41505109A0F735
:1007400008953F924F925F926F927F928F929F9205
:10075000AF92BF92CF92DF92EF92FF920F931F93CF
:10076000CF93DF93EC01162F7A0169010E941602E4
:100770004B015C01312C111138843601660C771C59
:10078000660C771C85E0681A71082701440C551C1B
:10079000440C551C85E0481A510810E000E060E068
:1007A00070E0CB012A813B814C815D8126173707A0
:1007B000480759070CF10115110599F582E0E81673
:1007C000F1041CF0C2010197F1F70E9416026819AA
:1007D00079098A099B09E985F0E0EE0FFF1FE859C6
:1007E000FF4FA591B4912C910F5F1F4F38852323A4
:1007F000231105C097FFD6CF6FEF7FEFCB01DF91BD
:10080000CF911F910F91FF90EF90DF90CF90BF900D
:10081000AF909F908F907F906F905F904F903F90A0
:10082000089582E0C816D10484F2C301CCCF0F939F
:100830001F93CF93DF93DA01A9019801EC017F8325
:100840006E83FB01E656FF4FE491E887FB01EA5710
:10085000FF4FE491E987E881F9810190F081E02D73
:10086000BD01DF91CF911F910F910994CF92DF923B
:10087000EF92FF920F931F93CF93DF93CDB7DEB725
:1008800028970FB6F894DEBF0FBECDBFDC011696D9
:10089000ED91FC91319609F440C08A017B011982E7
:1008A0001A821B821C821D821E821F821886DC0116
:1008B000ED91FC910480F581E02DAE014B5F5F4F1F
:1008C000BE016F5F7F4F09956C01892BB1F4E11474
:1008D000F10441F069817A818B819C810E946B09CE
:1008E000F70160830115110541F06D817E818F81D3
:1008F00098850E946B09D8016C93C60128960FB6A3
:10090000F894DEBF0FBECDBFDF91CF911F910F9145
:10091000FF90EF90DF90CF90089587E1C82ED12C03
:10092000ECCF089590E080E00895CF93DF93EC0141
:1009300060E08E810E94990161E08E810E949901A0
:1009400060E08E810E9499018BE891E00197F1F7B8
:10095000DF91CF910895CF92DF92EF92FF920F93A4
:100960001F93CF93DF936C017C0187E0E80EF11CAD
:10097000D0E0C0E0062F10E0B8010C2E02C0759543
:1009800067950A94E2F76170F70181917F010E94F7
:1009900099012196C430D10579F7C601DF91CF9135
:1009A0001F910F91FF90EF90DF90CF900C949504E2
:1009B000CF92DF92EF92FF920F931F93CF93DF932B
:1009C000EC01F62E642F8C810E9499018D818F3F5E
:1009D00019F060E00E9499010F2D10E08F8584FFCF
:1009E00025C06E0187E0C80ED11CF12CE12CB801A6
:1009F0000E2C02C0759567950A94E2F76170F601B6
:100A000081916F010E949901FFEFEF1AFF0A88E0C0
:100A1000E816F10461F7CE01DF91CF911F910F919C
:100A2000FF90EF90DF90CF900C949504B80184E094
:100A3000759567958A95E1F7CE010E94AB046F2DFD
:100A4000CE01DF91CF911F910F91FF90EF90DF903A
:100A5000CF900C94AB0440E0682F82E692E00C94B7
:100A6000D804CF93DF93823029F49091710298607B
:100A700090937102809375021092760280E48093C5
:100A8000770280E18093780280E58093790261E0CB
:100A9000809166020E94E501809167028F3F19F004
:100AA00061E00E94E50161E0809168020E94E50139
:100AB000C2E6D2E09E01225632408091710284FD4E
:100AC0000BC084E090E021962817390744F461E0D8
:100AD0008E810E94E501EECF88E090E0F4CF8BE3B9
:100AE0009DE00197F1F760E0809166020E94990114
:100AF00060E0809168020E949901809167028F3FB7
:100B000019F060E00E9499018091710284FD39C062
:100B100063E082E692E00E94AB04CBE4D6E4CE012F
:100B20000197F1F763E082E692E00E94AB0421971F
:100B3000F1F763E082E692E00E94AB0483E592E085
:100B40000197F1F762E082E692E00E94AB048091A7
:100B5000710280620E942B0584E0809372028CE017
:100B60000E942B0581E00E942B058BE39FE10197FA
:100B7000F1F782E08093730286E0DF91CF910C94CD
:100B80002B0580620E942B058BE496E40197F1F718
:100B90008091710280620E942B0583E592E00197AB
:100BA000F1F78091710280620E942B05D0CF41E065
:100BB0000E94D80481E090E008950E942F0AFB0172
:100BC00001900020E9F73197AF01461B570BDC017C
:100BD000ED91FC910280F381E02D09948F929F9218
:100BE000AF92BF92EF92FF920F931F93CF93DF9339
:100BF000CDB7DEB7A1970FB6F894DEBF0FBECDBF5D
:100C00007C01FA01CB0119A2223008F42AE08E01FE
:100C10000F5D1F4F822E912CB12CA12CBF01A5017D
:100C200094010E94070AF901CA016A300CF5605D5F
:100C3000D8016E938D01232B242B252B79F790E07F
:100C400080E0109721F0BD01C7010E94DF05A19649
:100C50000FB6F894DEBF0FBECDBFDF91CF911F91CD
:100C60000F91FF90EF90BF90AF909F908F9008955D
:100C7000695CDECFCF92DF92EF92FF920F931F93CA
:100C8000CF93DF93EC016A017B01E881F981019048
:100C9000F081E02D6DE209958C0144275527BA01BA
:100CA0004C195D096E097F092AE0CE010E94EE050C
:100CB000800F911FDF91CF911F910F91FF90EF90C7
:100CC000DF90CF900895AB01770F660B770B77FD20
:100CD0000C943A062AE00C94EE05CF93DF93BC0106
:100CE0008BEB91E00E94DF05EC0162E371E08BEB9E
:100CF00091E00E94DF058C0F9D1FDF91CF91089539
:100D0000EF92FF920F931F93CF93DF93EC018B0130
:100D100088E2FB0111928A95E9F761E08E810E94D9
:100D2000E50160E08E810E94990164E170E080E05D
:100D300090E00E943B0261E08E810E94990160E098
:100D40008E810E94E5018FE590E00197F1F7E8813F
:100D5000F9810084F185E02D26E030E04AE050E0A2
:100D600060E0CE0109956E317105810591056CF445
:100D7000982F872F762F66276061CB01DF91CF9167
:100D80001F910F91FF90EF900895E881F981008401
:100D9000F185E02D26E030E04AE050E061E0CE0150
:100DA00009957801F8E2EF0EF11C623371058105B7
:100DB000910534F4982F872F762F66276161DDCF58
:100DC000E881F9810084F185E02D26E030E04AE0F9
:100DD00050E060E0CE01099568317105810591050B
:100DE00034F4982F872F762F66276261C6CFE8816B
:100DF000F9810084F185E02D26E030E04AE050E002
:100E000061E0CE0109956B3071058105910534F4DF
:100E1000982F872F762F66276361AFCF21E0693245
:100E20007105810591050CF420E0F80121938F01F3
:100E3000EE16FF0629F6E881F9810084F185E02DA0
:100E400026E030E04AE050E060E0CE0109956831EC
:100E500071058105910534F4982F872F762F662729
:100E600064618BCF70E060E088CF1F920F920FB665
:100E70000F9211242F933F934F935F936F937F9320
:100E80008F939F93AF93BF93EF93FF938BEB91E07F
:100E90000E940A01FF91EF91BF91AF919F918F91B5
:100EA0007F916F915F914F913F912F910F900FBE66
:100EB0000F901F9018951F920F920FB60F9211244A
:100EC0002F938F939F93EF93FF93E091CB01F0913A
:100ED000CC018081E091D101F091D20182FD1BC053
:100EE00090818091D4018F5F8F732091D5018217FB
:100EF00041F0E091D401F0E0E554FE4F958F8093EE
:100F0000D401FF91EF919F918F912F910F900FBE80
:100F10000F901F9018958081F4CF1F920F920FB6FB
:100F20000F9211242F933F938F939F93AF93BF936F
:100F30008091B1019091B201A091B301B091B4013F
:100F40003091B00123E0230F2D3758F50196A11DF4
:100F5000B11D2093B0018093B1019093B201A09391
:100F6000B301B093B4018091B5019091B601A09105
:100F7000B701B091B8010196A11DB11D8093B501D3
:100F80009093B601A093B701B093B801BF91AF9110
:100F90009F918F913F912F910F900FBE0F901F90B7
:100FA000189526E8230F0296A11DB11DD2CFCF932D
:100FB000EBEBF1E01382128288EE93E0A0E0B0E068
:100FC00084839583A683B78384E091E091838083B3
:100FD00085EC90E09587848784EC90E097878687FE
:100FE00080EC90E0918B808B81EC90E0938B828BF6
:100FF00082EC90E0958B848B86EC90E0978B868BCF
:10100000118E128E138E148EE2E6F2E0138212829B
:101010008AE291E0918380838CE08483CFEFC58363
:101020008BE0868385E0878384E0808783E0818707
:1010300082E082871386148615861686178681E0DD
:101040000E943105E8E5F2E080E49BE4ACE4B0E026
:1010500082839383A483B5838FEF9FEF97838683E7
:10106000C087C18786E191E091838083CF91089505
:10107000CF93DF9300D0CDB7DEB7789484B582608C
:1010800084BD84B5816084BD85B5826085BD85B52C
:10109000816085BD80916E00816080936E001092AA
:1010A0008100809181008260809381008091810025
:1010B00081608093810080918000816080938000B6
:1010C0008091B10084608093B1008091B000816014
:1010D0008093B00080917A00846080937A00809140
:1010E0007A00826080937A0080917A008160809398
:1010F0007A0080917A00806880937A001092C10013
:10110000E091CB01F091CC0182E08083E091C701B6
:10111000F091C8011082E091C901F091CA018FECF1
:1011200080831092D301E091CF01F091D00186E04D
:101130008083E091CD01F091CE0180818061808338
:10114000E091CD01F091CE01808188608083E091B3
:10115000CD01F091CE01808180688083E091CD0146
:10116000F091CE0180818F7D808382E00E943105E5
:1011700080E0E82E80E0F82E85E391E00E946D0685
:101180001A82198210E000E09E012F5F3F4FAE01EE
:101190004E5F5F4F6DE070E088E592E00E941704BB
:1011A0009093BA018093B901892B89F167E571E0C9
:1011B0008BEB91E00E94DF054091B9015091BA019B
:1011C000052E000C660B770B77FF1BC08BEB91E0B5
:1011D0000E943A0662E371E08BEB91E00E94DF052A
:1011E00068EE73E080E090E00E943B02E114F104BD
:1011F00019F20E94F600882309F4BECF0E94000075
:10120000BBCF2AE08BEB91E00E94EE05E3CF6FE6C7
:1012100071E08BEB91E00E94DF056A8170E08BEB5F
:1012200091E00E9463068FE791E00E946D0664E8FA
:1012300071E08BEB91E00E94DF05698170E08BEB40
:1012400091E00E94630681E991E00E946D06E1E071
:10125000809175028111E0E0E195F0E0EE59FD4FDB
:10126000848980680E942B0564E971E082E692E03F
:101270000E94DF056A8170E082E692E00E946306C8
:1012800062E871E082E692E00E94DF05E09175027B
:10129000E230F8F4E150F0E0EE59FD4F84898068C7
:1012A0000E942B0562EA71E082E692E00E94DF056F
:1012B000698170E082E692E00E94630662E971E073
:1012C00082E692E00E94DF0560ED77E080E090E04A
:1012D0008BCFE1E0E0CF0E9472096894B1110C94C9
:1012E000010A08950E94E60988F09F5798F0B92FE7
:1012F0009927B751B0F0E1F0660F771F881F991F4B
:101300001AF0BA95C9F714C0B13091F00E94000AE2
:10131000B1E008950C94000A672F782F8827B85FF2
:1013200039F0B93FCCF3869577956795B395D9F7A2
:101330003EF490958095709561957F4F8F4F9F4FAC
:101340000895E89409C097FB3EF4909580957095B8
:1013500061957F4F8F4F9F4F9923A9F0F92F96E901
:10136000BB279395F695879577956795B795F11176
:10137000F8CFFAF4BB0F11F460FF1BC06F5F7F4F13
:101380008F4F9F4F16C0882311F096E911C0772325
:1013900021F09EE8872F762F05C0662371F096E82E
:1013A000862F70E060E02AF09A95660F771F881FFD
:1013B000DAF7880F9695879597F9089557FD905815
:1013C000440F551F59F05F3F71F04795880F97FB09
:1013D000991F61F09F3F79F08795089512161306C3
:1013E0001406551FF2CF4695F1DF08C016161706F2
:1013F0001806991FF1CF8695710561050894089527
:10140000E894BB2766277727CB0197F90895A1E2D7
:101410001A2EAA1BBB1BFD010DC0AA1FBB1FEE1F6E
:10142000FF1FA217B307E407F50720F0A21BB30BB9
:10143000E40BF50B661F771F881F991F1A9469F735
:1014400060957095809590959B01AC01BD01CF0191
:101450000895EE0FFF1F0590F491E02D099481E0AF
:0C14600090E0F8940C94340AF894FFCF4C
:10146C00000000002C018C00B9007901EA00C800D2
:10147C00DC0000000000360417048C026D02A1038E
:10148C00910380062D0300000000D7058C00920408
:10149C0091040D0A003D3D3D3D3D3D3D3D3D3D3DF5
:1014AC003D3D3D3D3D3D3D3D3D3D3D3D3D3D3D3D60
:1014BC003D3D3D3D3D3D0052656164204448543105
:1014CC0031206661696C65642C206572723D005434
:1014DC00656D70C3A9726174757265203A20002025
:1014EC00C2B0430048756D69646974C3A9203A2081
:1014FC000020250054656D70657261747572653AD3
:10150C00200048756D69646974652020203A2000BC
:107E0000112484B714BE81FFF0D085E080938100F7
:107E100082E08093C00088E18093C10086E0809377
:107E2000C20080E18093C4008EE0C9D0259A86E02C
:107E300020E33CEF91E0309385002093840096BBD3
:107E4000B09BFECF1D9AA8958150A9F7CC24DD24C4
:107E500088248394B5E0AB2EA1E19A2EF3E0BF2EE7
:107E6000A2D0813461F49FD0082FAFD0023811F036
:107E7000013811F484E001C083E08DD089C08234E0
:107E800011F484E103C0853419F485E0A6D080C0E4
:107E9000853579F488D0E82EFF2485D0082F10E0AE
:107EA000102F00270E291F29000F111F8ED06801E7
:107EB0006FC0863521F484E090D080E0DECF843638
:107EC00009F040C070D06FD0082F6DD080E0C81688
:107ED00080E7D80618F4F601B7BEE895C0E0D1E017
:107EE00062D089930C17E1F7F0E0CF16F0E7DF06D8
:107EF00018F0F601B7BEE89568D007B600FCFDCFD4
:107F0000A601A0E0B1E02C9130E011968C91119780
:107F100090E0982F8827822B932B1296FA010C0160
:107F200087BEE89511244E5F5F4FF1E0A038BF0790
:107F300051F7F601A7BEE89507B600FCFDCF97BE46
:107F4000E89526C08437B1F42ED02DD0F82E2BD052
:107F50003CD0F601EF2C8F010F5F1F4F84911BD097
:107F6000EA94F801C1F70894C11CD11CFA94CF0C13
:107F7000D11C0EC0853739F428D08EE10CD085E9AC
:107F80000AD08FE07ACF813511F488E018D01DD067
:107F900080E101D065CF982F8091C00085FFFCCF94
:107FA0009093C60008958091C00087FFFCCF809118
:107FB000C00084FD01C0A8958091C6000895E0E648
:107FC000F0E098E1908380830895EDDF803219F02E
:107FD00088E0F5DFFFCF84E1DECF1F93182FE3DFCA
:107FE0001150E9F7F2DF1F91089580E0E8DFEE27F6
:047FF000FF270994CA
:027FFE00040479
:0400000300007E007B
:00000001FF
