:100000000C9462000C948A000C948A000C948A0070
:100010000C948A000C948A000C948A000C948A0038
:100020000C948A000C948A000C948A000C948A0028
:100030000C948A000C948A000C948A000C948A0018
:100040000C94D6030C948A000C948A000C948A00B9
:100050000C948A000C948A000C948A000C948A00F8
:100060000C948A000C948A000000000024002700F1
:100070002A0000000000250028002B0000000008D6
:10008000000201000003040700000000000000005F
:1000900000000000230026002900040404040404D6
:1000A0000404020202020202030303030303010227
:1000B00004081020408001020408102001020408F6
:1000C0001020B50511241FBECFEFD8E0DEBFCDBF95
:1000D00011E0A0E0B1E0E8E7F0E102C005900D9288
:1000E000AE32B107D9F721E0AEE2B1E001C01D9216
:1000F000AD35B207E1F710E0C2E6D0E004C02197C9
:10010000FE010E943408C136D107C9F70E942004BD
:100110000C943A080C940000AF92BF92CF92DF92F9
:10012000EF92FF920F931F93CF93DF936C017B01AC
:100130008B01040F151FEB015E01AE18BF08C0173D
:10014000D10759F06991D601ED91FC910190F081B0
:10015000E02DC6010995892B79F7C501DF91CF9173
:100160001F910F91FF90EF90DF90CF90BF90AF90D5
:10017000089590E0FC01E458FF4F2491FC01E25502
:10018000FF4F3491FC01E656FF4FE491EE23C9F096
:10019000222339F0233001F1A8F4213019F1223063
:1001A00029F1F0E0EE0FFF1FEE58FF4FA591B4913B
:1001B0008FB7F894EC91611126C030953E233C93A3
:1001C0008FBF08952730A9F02830C9F0243049F7AF
:1001D000809180008F7D03C0809180008F77809315
:1001E0008000DFCF84B58F7784BDDBCF84B58F7D72
:1001F000FBCF8091B0008F778093B000D2CF8091F9
:10020000B0008F7DF9CF3E2BDACFCF93DF9390E014
:10021000FC01E255FF4F249186569F4FFC018491CB
:100220008823D1F090E0880F991FFC01E859FF4F17
:10023000A591B491FC01EE58FF4FC591D491611185
:100240000EC09FB7F8948C91E22FE0958E238C938B
:100250002881E223E8839FBFDF91CF9108958FB774
:10026000F894EC91E22BEC938FBFF6CF3FB7F89464
:100270008091330190913401A0913501B091360104
:1002800026B5A89B05C02F3F19F00196A11DB11DF1
:100290003FBFBA2FA92F982F8827BC01CD01620F2D
:1002A000711D811D911D42E0660F771F881F991FE8
:1002B0004A95D1F70895089590E080E00895FC01F3
:1002C00001900020E9F73197AF01481B590BBC01A1
:1002D00085E491E00C948C008F929F92AF92BF9234
:1002E0000F931F93CF93DF93CDB7DEB7A1970FB6D0
:1002F000F894DEBF0FBECDBF19A2423008F44AE029
:100300008E010F5D1F4F842E912CB12CA12CA501C5
:1003100094010E941208E62FB901CA01EA30F4F4F0
:10032000E05DD801EE938D01232B242B252B79F74B
:1003300090E080E0109719F0CD010E945F01A19636
:100340000FB6F894DEBF0FBECDBFDF91CF911F91E6
:100350000F91BF90AF909F908F900895E95CE1CF8F
:10036000CF93DF93EC0160E08E810E94B90061E0E1
:100370008E810E94B90060E08E810E94B9008BE8F6
:1003800091E00197F1F7DF91CF910895CF92DF923D
:10039000EF92FF920F931F93CF93DF936C017C0139
:1003A00087E0E80EF11CD0E0C0E0062F10E0B801B5
:1003B0000C2E02C0759567950A94E2F76170F701FB
:1003C00081917F010E94B9002196C430D10579F74F
:1003D000C601DF91CF911F910F91FF90EF90DF90B9
:1003E000CF900C94B001CF92DF92EF92FF920F93D7
:1003F0001F93CF93DF93EC01F62E642F8C810E9424
:10040000B9008D818F3F19F060E00E94B9000F2D77
:1004100010E08F8584FF25C06E0187E0C80ED11CD7
:10042000F12CE12CB8010E2C02C0759567950A9449
:10043000E2F76170F60181916F010E94B900FFEF50
:10044000EF1AFF0A88E0E816F10461F7CE01DF91A8
:10045000CF911F910F91FF90EF90DF90CF900C9470
:10046000B001B80184E0759567958A95E1F7CE01F2
:100470000E94C6016F2DCE01DF91CF911F910F9188
:10048000FF90EF90DF90CF900C94C60140E0682F72
:1004900085E491E00C94F301CF93DF93823029F44B
:1004A0009091540198609093540180935801109258
:1004B000590180E480935A0180E180935B0180E5DB
:1004C00080935C0161E0809149010E940501809167
:1004D0004A018F3F19F061E00E94050161E08091BF
:1004E0004B010E940501C5E4D1E09E012554314035
:1004F0008091540184FD0BC084E090E02196281780
:10050000390744F461E08E810E940501EECF88E056
:1005100090E0F4CF8BE39DE00197F1F760E08091EC
:1005200049010E94B90060E080914B010E94B9002E
:1005300080914A018F3F19F060E00E94B9008091DC
:10054000540184FD39C063E085E491E00E94C60156
:10055000CBE4D6E4CE010197F1F763E085E491E0C6
:100560000E94C6012197F1F763E085E491E00E94C3
:10057000C60183E592E00197F1F762E085E491E03E
:100580000E94C6018091540180620E94460284E06C
:10059000809355018CE00E94460281E00E94460251
:1005A0008BE39FE10197F1F782E08093560186E0AB
:1005B000DF91CF910C94460280620E9446028BE448
:1005C00096E40197F1F78091540180620E944602FF
:1005D00083E592E00197F1F78091540180620E94D7
:1005E0004602D0CF41E00E94F30181E090E00895FF
:1005F0004F925F926F927F928F929F92AF92BF9233
:10060000CF92DF92EF92FF920F931F93CF936B01E4
:100610007C01742EAC019B010E940D08882399F087
:100620008CE091E0CF911F910F91FF90EF90DF90C0
:10063000CF90BF90AF909F908F907F906F905F9082
:100640004F900C945F0146015701E894B7F82FEFE3
:100650003FEF4FE75FE7C501B4010E940D0881112C
:100660000DC02FEF3FEF4FE75FE7C501B4010E94D8
:10067000430618161CF480E191E0D4CF2FEF3FEF32
:100680004FE75FE4C701B6010E949B0718161CF4F0
:1006900084E191E0C7CF2FEF3FEF4FE75FECC70159
:1006A000B6010E94430687FDF3CF20E030E0A901A8
:1006B000C701B6010E94430610E000E087FF0CC0AE
:1006C00041E06DE285E491E00E94F301F7FAF094D5
:1006D000F7F8F09401E010E0C0E060E070E080E046
:1006E0009FE37C1641F020E030E040E251E40E94BC
:1006F0004806CF5FF6CFA70196010E94D7054B01B0
:100700005C010E94BA062B013C014AE00E946C0188
:10071000080F191FCC23C9F1C301B2010E94E906D9
:100720009B01AC01C501B4010E94D6054B015C01DF
:1007300041E06EE285E491E00E94F3010F5F1F4FFC
:10074000C15018F120E030E040E251E4C501B401AD
:100750000E94A0072B013C010E94BA064B01B12C5C
:10076000A12C4AE0C501B4010E946C01080F191FB9
:10077000C501B4010E94E9069B01AC01C301B201AD
:100780000E94D6054B015C01DBCFC801CF911F91C0
:100790000F91FF90EF90DF90CF90BF90AF909F9020
:1007A0008F907F906F905F904F9008951F920F925F
:1007B0000FB60F9211242F933F938F939F93AF9374
:1007C000BF9380912F0190913001A0913101B091A0
:1007D000320130912E0123E0230F2D3758F5019679
:1007E000A11DB11D20932E0180932F019093300104
:1007F000A0933101B0933201809133019091340183
:10080000A0913501B09136010196A11DB11D8093D3
:10081000330190933401A0933501B0933601BF9119
:10082000AF919F918F913F912F910F900FBE0F909D
:100830001F90189526E8230F0296A11DB11DD2CF57
:10084000789484B5826084BD84B5816084BD85B5AB
:10085000826085BD85B5816085BD80916E008160B7
:1008600080936E001092810080918100826080935D
:10087000810080918100816080938100809180005F
:100880008160809380008091B10084608093B1008A
:100890008091B00081608093B00080917A00846084
:1008A00080937A0080917A00826080937A008091B0
:1008B0007A00816080937A0080917A0080688093CA
:1008C0007A001092C10082E00E944C02B7EA2B2EFF
:1008D000B0E03B2E0BE91FE0C0E94C2E55245394A9
:1008E000612C712C80914401882309F0F894EBEB82
:1008F000F0E0D490F1018491E82FF0E0EE0FFF1FBB
:10090000E057FF4FE590F49061E08DE00E94050113
:1009100060E08DE00E94B900C8010197F1F760E046
:100920008DE00E94050180E293E0E70128812D21FE
:1009300009F4BFC00197C9F78091440181110FC12B
:1009400060913F01637060933F01F0904101EF2D92
:10095000E378EE2EE093410170E0762F66278091D8
:100960004001680F711D072E000C880B990B0E9427
:10097000EB062DEC3CEC4CEC5DE30E94A007609391
:100980003701709338018093390190933A016F2DAC
:10099000637070E0762F662780914201680F711DA9
:1009A000072E000C880B990B0E94EB062DEC3CECFB
:1009B0004CEC5DE30E94A007E7FCD3C060933B01D1
:1009C00070933C0180933D0190933E01E1E0809162
:1009D00058018111E0E0E195F0E0EB5BFE4F848986
:1009E00080680E94460288E191E00E945F01609168
:1009F0003B0170913C0180913D0190913E0141E0AD
:100A00000E94F80241E06FED85E491E00E94F3015D
:100A10008FE191E00E945F01E0915801E23008F01F
:100A2000A2C0E150F0E0EB5BFE4F848980680E9439
:100A3000460281E291E00E945F016091370170916E
:100A400038018091390190913A0141E00E94F80209
:100A50008CE291E00E945F010E9436016B017C01F3
:100A600088EE882E83E0982EA12CB12C0E943601AE
:100A70006C197D098E099F09683E734081059105B7
:100A8000A8F3F1E08F1A9108A108B10828EEC20E70
:100A900023E0D21EE11CF11C81149104A104B104D5
:100AA00029F7E0E0F0E0EF2B09F41CCF0E940000F2
:100AB00019CF80E991E0F70120812D2119F40197E8
:100AC000D1F73ACF80E991E0E70128812D2191F11A
:100AD0000197D1F731CF6A2FCC2009F42DCFE70150
:100AE000A881AD2121F5662311F1D2E2DC1578F55C
:100AF0008417950708F4AC01C301B201641B750BA0
:100B00008109910932E095958795779567953A9592
:100B1000D1F79B01E69541F4EB2DF0E0E95CFE4F47
:100B2000B087B394B0E0E0E8CA9480E991E001971F
:100B300091F602CFB12CB0E0E0E830E020E080E9AF
:100B400091E040E951E060E078E2C72EC8CFBA01F9
:100B5000621B730B68177907E8F2BE2BDBCF789422
:100B6000EFCE90582BCFE1E05DCFE5E4F1E01382CA
:100B7000128284E091E0918380838CE084838FEF04
:100B800085838BE0868385E0878384E0808783E0AC
:100B9000818782E0828713861486158616861786DB
:100BA00081E00E944C021092440108955058BB27E6
:100BB000AA270E94EE050C9461070E94530738F0A3
:100BC0000E945A0720F039F49F3F19F426F40C9440
:100BD00050070EF4E095E7FB0C944A07E92F0E94BA
:100BE000720758F3BA17620773078407950720F056
:100BF00079F4A6F50C9494070EF4E0950B2EBA2F19
:100C0000A02D0B01B90190010C01CA01A001112412
:100C1000FF27591B99F0593F50F4503E68F11A16BE
:100C2000F040A22F232F342F4427585FF3CF46954F
:100C300037952795A795F0405395C9F77EF41F1671
:100C4000BA0B620B730B840BBAF09150A1F0FF0F3B
:100C5000BB1F661F771F881FC2F70EC0BA0F621F27
:100C6000731F841F48F4879577956795B795F79517
:100C70009E3F08F0B0CF9395880F08F09927EE0FAC
:100C80009795879508950E94260708F481E00895B6
:100C90000E945C060C9461070E945A0758F00E945B
:100CA000530740F029F45F3F29F00C944A07511193
:100CB0000C9495070C9450070E94720768F39923CF
:100CC000B1F3552391F3951B550BBB27AA27621748
:100CD0007307840738F09F5F5F4F220F331F441F55
:100CE000AA1FA9F335D00E2E3AF0E0E832D0915089
:100CF0005040E695001CCAF72BD0FE2F29D0660F76
:100D0000771F881FBB1F261737074807AB07B0E8B8
:100D100009F0BB0B802DBF01FF2793585F4F3AF0BE
:100D20009E3F510578F00C944A070C9495075F3F5D
:100D3000E4F3983ED4F3869577956795B795F79544
:100D40009F5FC9F7880F911D9695879597F908952C
:100D5000E1E0660F771F881FBB1F621773078407C8
:100D6000BA0720F0621B730B840BBA0BEE1F88F7D7
:100D7000E09508950E947A0788F09F5798F0B92F60
:100D80009927B751B0F0E1F0660F771F881F991FC0
:100D90001AF0BA95C9F714C0B13091F00E949407C7
:100DA000B1E008950C949407672F782F8827B85FD7
:100DB00039F0B93FCCF3869577956795B395D9F718
:100DC0003EF490958095709561957F4F8F4F9F4F22
:100DD0000895E89409C097FB3EF49095809570952E
:100DE00061957F4F8F4F9F4F9923A9F0F92F96E977
:100DF000BB279395F695879577956795B795F111EC
:100E0000F8CFFAF4BB0F11F460FF1BC06F5F7F4F88
:100E10008F4F9F4F16C0882311F096E911C077239A
:100E200021F09EE8872F762F05C0662371F096E8A3
:100E3000862F70E060E02AF09A95660F771F881F72
:100E4000DAF7880F9695879597F90895990F000816
:100E5000550FAA0BE0E8FEEF16161706E807F9078C
:100E6000C0F012161306E407F50798F0621B730B27
:100E7000840B950B39F40A2661F0232B242B252BA8
:100E800021F408950A2609F4A140A6958FEF811D4B
:100E9000811D089597F99F6780E870E060E00895EC
:100EA0009FEF80EC089500240A9416161706180682
:100EB0000906089500240A9412161306140605065E
:100EC0000895092E0394000C11F4882352F0BB0FEF
:100ED00040F4BF2B11F460FF04C06F5F7F4F8F4F52
:100EE0009F4F089557FD9058440F551F59F05F3F8D
:100EF00071F04795880F97FB991F61F09F3F79F03C
:100F000087950895121613061406551FF2CF4695BD
:100F1000F1DF08C0161617061806991FF1CF86953F
:100F20007105610508940895E894BB276627772723
:100F3000CB0197F908950E94260708F48FEF0895D2
:100F40000E94B3070C9461070E94530738F00E9477
:100F50005A0720F0952311F00C944A070C9450077F
:100F600011240C9495070E94720770F3959FC1F3AA
:100F7000950F50E0551F629FF001729FBB27F00D47
:100F8000B11D639FAA27F00DB11DAA1F649F66279C
:100F9000B00DA11D661F829F2227B00DA11D621FEB
:100FA000739FB00DA11D621F839FA00D611D221FA5
:100FB000749F3327A00D611D231F849F600D211D89
:100FC000822F762F6A2F11249F5750409AF0F1F00C
:100FD00088234AF0EE0FFF1FBB1F661F771F881F75
:100FE00091505040A9F79E3F510580F00C944A075C
:100FF0000C9495075F3FE4F3983ED4F3869577957C
:101000006795B795F795E7959F5FC1F7FE2B880F1A
:10101000911D9695879597F908950E942607880B4C
:10102000990B0895A1E21A2EAA1BBB1BFD010DC04E
:10103000AA1FBB1FEE1FFF1FA217B307E407F50788
:1010400020F0A21BB30BE40BF50B661F771F881F64
:10105000991F1A9469F760957095809590959B01FA
:10106000AC01BD01CF010895EE0FFF1F0590F49173
:08107000E02D0994F894FFCF74
:1010780000000000F2028C005C015B016E616E00F2
:10108800696E66006F76660054656D703A2000439D
:0E1098000048756D69646974793A200025007E
:107E0000112484B714BE81FFF0D085E080938100F7
:107E100082E08093C00088E18093C10086E0809377
:107E2000C20080E18093C4008EE0C9D0259A86E02C
:107E300020E33CEF91E0309385002093840096BBD3
:107E4000B09BFECF1D9AA8958150A9F7CC24DD24C4
:107E500088248394B5E0AB2EA1E19A2EF3E0BF2EE7
:107E6000A2D0813461F49FD0082FAFD0023811F036
:107E7000013811F484E001C083E08DD089C08234E0
:107E800011F484E103C0853419F485E0A6D080C0E4
:107E9000853579F488D0E82EFF2485D0082F10E0AE
:107EA000102F00270E291F29000F111F8ED06801E7
:107EB0006FC0863521F484E090D080E0DECF843638
:107EC00009F040C070D06FD0082F6DD080E0C81688
:107ED00080E7D80618F4F601B7BEE895C0E0D1E017
:107EE00062D089930C17E1F7F0E0CF16F0E7DF06D8
:107EF00018F0F601B7BEE89568D007B600FCFDCFD4
:107F0000A601A0E0B1E02C9130E011968C91119780
:107F100090E0982F8827822B932B1296FA010C0160
:107F200087BEE89511244E5F5F4FF1E0A038BF0790
:107F300051F7F601A7BEE89507B600FCFDCF97BE46
:107F4000E89526C08437B1F42ED02DD0F82E2BD052
:107F50003CD0F601EF2C8F010F5F1F4F84911BD097
:107F6000EA94F801C1F70894C11CD11CFA94CF0C13
:107F7000D11C0EC0853739F428D08EE10CD085E9AC
:107F80000AD08FE07ACF813511F488E018D01DD067
:107F900080E101D065CF982F8091C00085FFFCCF94
:107FA0009093C60008958091C00087FFFCCF809118
:107FB000C00084FD01C0A8958091C6000895E0E648
:107FC000F0E098E1908380830895EDDF803219F02E
:107FD00088E0F5DFFFCF84E1DECF1F93182FE3DFCA
:107FE0001150E9F7F2DF1F91089580E0E8DFEE27F6
:047FF000FF270994CA
:027FFE00040479
:0400000300007E007B
:00000001FF
